{
  "_format": "hh-sol-artifact-1",
  "contractName": "FoodTraceability",
  "sourceName": "contracts/FoodTraceability.sol",
  "abi": [
    {
      "inputs": [],
      "stateMutability": "nonpayable",
      "type": "constructor"
    },
    {
      "anonymous": false,
      "inputs": [
        {
          "indexed": false,
          "internalType": "string",
          "name": "productName",
          "type": "string"
        },
        {
          "indexed": false,
          "internalType": "string",
          "name": "producer",
          "type": "string"
        },
        {
          "indexed": false,
          "internalType": "uint256",
          "name": "timestamp",
          "type": "uint256"
        }
      ],
      "name": "ProductAdded",
      "type": "event"
    },
    {
      "anonymous": false,
      "inputs": [
        {
          "indexed": false,
          "internalType": "string",
          "name": "name",
          "type": "string"
        },
        {
          "indexed": false,
          "internalType": "address",
          "name": "ethAddress",
          "type": "address"
        }
      ],
      "name": "VendorRegistered",
      "type": "event"
    },
    {
      "anonymous": false,
      "inputs": [
        {
          "indexed": false,
          "internalType": "address",
          "name": "ethAddress",
          "type": "address"
        }
      ],
      "name": "VendorVerified",
      "type": "event"
    },
    {
      "inputs": [
        {
          "internalType": "string",
          "name": "_productName",
          "type": "string"
        },
        {
          "internalType": "string",
          "name": "_producer",
          "type": "string"
        },
        {
          "internalType": "address[]",
          "name": "_platforms",
          "type": "address[]"
        }
      ],
      "name": "addFoodProduct",
      "outputs": [],
      "stateMutability": "nonpayable",
      "type": "function"
    },
    {
      "inputs": [
        {
          "internalType": "uint256",
          "name": "",
          "type": "uint256"
        }
      ],
      "name": "foodProducts",
      "outputs": [
        {
          "internalType": "string",
          "name": "productName",
          "type": "string"
        },
        {
          "internalType": "string",
          "name": "producer",
          "type": "string"
        },
        {
          "internalType": "uint256",
          "name": "timestamp",
          "type": "uint256"
        }
      ],
      "stateMutability": "view",
      "type": "function"
    },
    {
      "inputs": [
        {
          "internalType": "uint256",
          "name": "index",
          "type": "uint256"
        }
      ],
      "name": "getFoodProduct",
      "outputs": [
        {
          "internalType": "string",
          "name": "",
          "type": "string"
        },
        {
          "internalType": "string",
          "name": "",
          "type": "string"
        },
        {
          "internalType": "uint256",
          "name": "",
          "type": "uint256"
        },
        {
          "internalType": "address[]",
          "name": "",
          "type": "address[]"
        }
      ],
      "stateMutability": "view",
      "type": "function"
    },
    {
      "inputs": [],
      "name": "getFoodProductCount",
      "outputs": [
        {
          "internalType": "uint256",
          "name": "",
          "type": "uint256"
        }
      ],
      "stateMutability": "view",
      "type": "function"
    },
    {
      "inputs": [
        {
          "internalType": "address",
          "name": "_ethAddress",
          "type": "address"
        }
      ],
      "name": "getVendor",
      "outputs": [
        {
          "internalType": "string",
          "name": "",
          "type": "string"
        },
        {
          "internalType": "address",
          "name": "",
          "type": "address"
        },
        {
          "internalType": "bool",
          "name": "",
          "type": "bool"
        }
      ],
      "stateMutability": "view",
      "type": "function"
    },
    {
      "inputs": [],
      "name": "getVendorCount",
      "outputs": [
        {
          "internalType": "uint256",
          "name": "",
          "type": "uint256"
        }
      ],
      "stateMutability": "view",
      "type": "function"
    },
    {
      "inputs": [],
      "name": "owner",
      "outputs": [
        {
          "internalType": "address",
          "name": "",
          "type": "address"
        }
      ],
      "stateMutability": "view",
      "type": "function"
    },
    {
      "inputs": [
        {
          "internalType": "string",
          "name": "_name",
          "type": "string"
        },
        {
          "internalType": "address",
          "name": "_ethAddress",
          "type": "address"
        }
      ],
      "name": "registerVendor",
      "outputs": [],
      "stateMutability": "nonpayable",
      "type": "function"
    },
    {
      "inputs": [
        {
          "internalType": "uint256",
          "name": "",
          "type": "uint256"
        }
      ],
      "name": "vendorAddresses",
      "outputs": [
        {
          "internalType": "address",
          "name": "",
          "type": "address"
        }
      ],
      "stateMutability": "view",
      "type": "function"
    },
    {
      "inputs": [
        {
          "internalType": "address",
          "name": "",
          "type": "address"
        }
      ],
      "name": "vendors",
      "outputs": [
        {
          "internalType": "string",
          "name": "name",
          "type": "string"
        },
        {
          "internalType": "address",
          "name": "ethAddress",
          "type": "address"
        },
        {
          "internalType": "bool",
          "name": "isVerified",
          "type": "bool"
        }
      ],
      "stateMutability": "view",
      "type": "function"
    },
    {
      "inputs": [
        {
          "internalType": "address",
          "name": "_ethAddress",
          "type": "address"
        }
      ],
      "name": "verifyVendor",
      "outputs": [],
      "stateMutability": "nonpayable",
      "type": "function"
    }
  ],
  "bytecode": "0x608060405234801561001057600080fd5b5033600360006101000a81548173ffffffffffffffffffffffffffffffffffffffff021916908373ffffffffffffffffffffffffffffffffffffffff1602179055506117c2806100616000396000f3fe608060405234801561001057600080fd5b50600436106100a95760003560e01c80634f778658116100715780634f7786581461017d57806355450f5b146101995780635c2fa7e4146101c95780638da5cb5b146101fb578063a12eba7c14610219578063b90e502d14610237576100a9565b806307d90e34146100ae5780630bc0f7d3146100e157806327e30c361461011357806331af91d51461014557806333238c1c14610161575b600080fd5b6100c860048036038101906100c3919061116a565b610255565b6040516100d894939291906113b5565b60405180910390f35b6100fb60048036038101906100f69190611056565b6104b0565b60405161010a93929190611332565b60405180910390f35b61012d60048036038101906101289190611056565b610640565b60405161013c93929190611332565b60405180910390f35b61015f600480360381019061015a91906110d3565b61071f565b005b61017b6004803603810190610176919061107f565b6108a4565b005b61019760048036038101906101929190611056565b610a43565b005b6101b360048036038101906101ae919061116a565b610c38565b6040516101c091906112e7565b60405180910390f35b6101e360048036038101906101de919061116a565b610c77565b6040516101f293929190611370565b60405180910390f35b610203610dc1565b60405161021091906112e7565b60405180910390f35b610221610de7565b60405161022e919061146f565b60405180910390f35b61023f610df4565b60405161024c919061146f565b60405180910390f35b6060806000606060028054905085106102a3576040517f08c379a000000000000000000000000000000000000000000000000000000000815260040161029a9061142f565b60405180910390fd5b6000600286815481106102df577f4e487b7100000000000000000000000000000000000000000000000000000000600052603260045260246000fd5b90600052602060002090600402019050806000018160010182600201548360030183805461030c906115eb565b80601f0160208091040260200160405190810160405280929190818152602001828054610338906115eb565b80156103855780601f1061035a57610100808354040283529160200191610385565b820191906000526020600020905b81548152906001019060200180831161036857829003601f168201915b50505050509350828054610398906115eb565b80601f01602080910402602001604051908101604052809291908181526020018280546103c4906115eb565b80156104115780601f106103e657610100808354040283529160200191610411565b820191906000526020600020905b8154815290600101906020018083116103f457829003601f168201915b505050505092508080548060200260200160405190810160405280929190818152602001828054801561049957602002820191906000526020600020905b8160009054906101000a900473ffffffffffffffffffffffffffffffffffffffff1673ffffffffffffffffffffffffffffffffffffffff168152602001906001019080831161044f575b505050505090509450945094509450509193509193565b60606000806000808573ffffffffffffffffffffffffffffffffffffffff1673ffffffffffffffffffffffffffffffffffffffff1681526020019081526020016000206000016000808673ffffffffffffffffffffffffffffffffffffffff1673ffffffffffffffffffffffffffffffffffffffff16815260200190815260200160002060010160009054906101000a900473ffffffffffffffffffffffffffffffffffffffff166000808773ffffffffffffffffffffffffffffffffffffffff1673ffffffffffffffffffffffffffffffffffffffff16815260200190815260200160002060010160149054906101000a900460ff168280546105b3906115eb565b80601f01602080910402602001604051908101604052809291908181526020018280546105df906115eb565b801561062c5780601f106106015761010080835404028352916020019161062c565b820191906000526020600020905b81548152906001019060200180831161060f57829003601f168201915b505050505092509250925092509193909250565b6000602052806000526040600020600091509050806000018054610663906115eb565b80601f016020809104026020016040519081016040528092919081815260200182805461068f906115eb565b80156106dc5780601f106106b1576101008083540402835291602001916106dc565b820191906000526020600020905b8154815290600101906020018083116106bf57829003601f168201915b5050505050908060010160009054906101000a900473ffffffffffffffffffffffffffffffffffffffff16908060010160149054906101000a900460ff16905083565b600360009054906101000a900473ffffffffffffffffffffffffffffffffffffffff1673ffffffffffffffffffffffffffffffffffffffff163373ffffffffffffffffffffffffffffffffffffffff16146107af576040517f08c379a00000000000000000000000000000000000000000000000000000000081526004016107a69061140f565b60405180910390fd5b600060405180608001604052808581526020018481526020014281526020018381525090506002819080600181540180825580915050600190039060005260206000209060040201600090919091909150600082015181600001908051906020019061081c929190610e01565b506020820151816001019080519060200190610839929190610e01565b50604082015181600201556060820151816003019080519060200190610860929190610e87565b5050507fcbebef04e1d7de535a91cb84796482718220565630fdbc1954fbf9d97f04345384844260405161089693929190611370565b60405180910390a150505050565b600060405180606001604052808481526020018373ffffffffffffffffffffffffffffffffffffffff168152602001600015158152509050806000808473ffffffffffffffffffffffffffffffffffffffff1673ffffffffffffffffffffffffffffffffffffffff1681526020019081526020016000206000820151816000019080519060200190610937929190610e01565b5060208201518160010160006101000a81548173ffffffffffffffffffffffffffffffffffffffff021916908373ffffffffffffffffffffffffffffffffffffffff16021790555060408201518160010160146101000a81548160ff0219169083151502179055509050506001829080600181540180825580915050600190039060005260206000200160009091909190916101000a81548173ffffffffffffffffffffffffffffffffffffffff021916908373ffffffffffffffffffffffffffffffffffffffff1602179055507f460629d08abffedf61bb4ad09f6dab8f964b2ba91ed8696b08414540512516918383604051610a36929190611302565b60405180910390a1505050565b600360009054906101000a900473ffffffffffffffffffffffffffffffffffffffff1673ffffffffffffffffffffffffffffffffffffffff163373ffffffffffffffffffffffffffffffffffffffff1614610ad3576040517f08c379a0000000000000000000000000000000000000000000000000000000008152600401610aca9061140f565b60405180910390fd5b600073ffffffffffffffffffffffffffffffffffffffff166000808373ffffffffffffffffffffffffffffffffffffffff1673ffffffffffffffffffffffffffffffffffffffff16815260200190815260200160002060010160009054906101000a900473ffffffffffffffffffffffffffffffffffffffff1673ffffffffffffffffffffffffffffffffffffffff161415610ba4576040517f08c379a0000000000000000000000000000000000000000000000000000000008152600401610b9b9061144f565b60405180910390fd5b60016000808373ffffffffffffffffffffffffffffffffffffffff1673ffffffffffffffffffffffffffffffffffffffff16815260200190815260200160002060010160146101000a81548160ff0219169083151502179055507fd67326e8ff7b4bf4b725a1126f8a02b19ed755c0c842bdcb0f3a1d428fa3e21d81604051610c2d91906112e7565b60405180910390a150565b60018181548110610c4857600080fd5b906000526020600020016000915054906101000a900473ffffffffffffffffffffffffffffffffffffffff1681565b60028181548110610c8757600080fd5b9060005260206000209060040201600091509050806000018054610caa906115eb565b80601f0160208091040260200160405190810160405280929190818152602001828054610cd6906115eb565b8015610d235780601f10610cf857610100808354040283529160200191610d23565b820191906000526020600020905b815481529060010190602001808311610d0657829003601f168201915b505050505090806001018054610d38906115eb565b80601f0160208091040260200160405190810160405280929190818152602001828054610d64906115eb565b8015610db15780601f10610d8657610100808354040283529160200191610db1565b820191906000526020600020905b815481529060010190602001808311610d9457829003601f168201915b5050505050908060020154905083565b600360009054906101000a900473ffffffffffffffffffffffffffffffffffffffff1681565b6000600180549050905090565b6000600280549050905090565b828054610e0d906115eb565b90600052602060002090601f016020900481019282610e2f5760008555610e76565b82601f10610e4857805160ff1916838001178555610e76565b82800160010185558215610e76579182015b82811115610e75578251825591602001919060010190610e5a565b5b509050610e839190610f11565b5090565b828054828255906000526020600020908101928215610f00579160200282015b82811115610eff5782518260006101000a81548173ffffffffffffffffffffffffffffffffffffffff021916908373ffffffffffffffffffffffffffffffffffffffff16021790555091602001919060010190610ea7565b5b509050610f0d9190610f11565b5090565b5b80821115610f2a576000816000905550600101610f12565b5090565b6000610f41610f3c846114af565b61148a565b90508083825260208201905082856020860282011115610f6057600080fd5b60005b85811015610f905781610f768882610fd8565b845260208401935060208301925050600181019050610f63565b5050509392505050565b6000610fad610fa8846114db565b61148a565b905082815260208101848484011115610fc557600080fd5b610fd08482856115a9565b509392505050565b600081359050610fe78161175e565b92915050565b600082601f830112610ffe57600080fd5b813561100e848260208601610f2e565b91505092915050565b600082601f83011261102857600080fd5b8135611038848260208601610f9a565b91505092915050565b60008135905061105081611775565b92915050565b60006020828403121561106857600080fd5b600061107684828501610fd8565b91505092915050565b6000806040838503121561109257600080fd5b600083013567ffffffffffffffff8111156110ac57600080fd5b6110b885828601611017565b92505060206110c985828601610fd8565b9150509250929050565b6000806000606084860312156110e857600080fd5b600084013567ffffffffffffffff81111561110257600080fd5b61110e86828701611017565b935050602084013567ffffffffffffffff81111561112b57600080fd5b61113786828701611017565b925050604084013567ffffffffffffffff81111561115457600080fd5b61116086828701610fed565b9150509250925092565b60006020828403121561117c57600080fd5b600061118a84828501611041565b91505092915050565b600061119f83836111ab565b60208301905092915050565b6111b481611561565b82525050565b6111c381611561565b82525050565b60006111d48261151c565b6111de818561153f565b93506111e98361150c565b8060005b8381101561121a5781516112018882611193565b975061120c83611532565b9250506001810190506111ed565b5085935050505092915050565b61123081611573565b82525050565b600061124182611527565b61124b8185611550565b935061125b8185602086016115b8565b611264816116ac565b840191505092915050565b600061127c602683611550565b9150611287826116bd565b604082019050919050565b600061129f600d83611550565b91506112aa8261170c565b602082019050919050565b60006112c2601583611550565b91506112cd82611735565b602082019050919050565b6112e18161159f565b82525050565b60006020820190506112fc60008301846111ba565b92915050565b6000604082019050818103600083015261131c8185611236565b905061132b60208301846111ba565b9392505050565b6000606082019050818103600083015261134c8186611236565b905061135b60208301856111ba565b6113686040830184611227565b949350505050565b6000606082019050818103600083015261138a8186611236565b9050818103602083015261139e8185611236565b90506113ad60408301846112d8565b949350505050565b600060808201905081810360008301526113cf8187611236565b905081810360208301526113e38186611236565b90506113f260408301856112d8565b818103606083015261140481846111c9565b905095945050505050565b600060208201905081810360008301526114288161126f565b9050919050565b6000602082019050818103600083015261144881611292565b9050919050565b60006020820190508181036000830152611468816112b5565b9050919050565b600060208201905061148460008301846112d8565b92915050565b60006114946114a5565b90506114a0828261161d565b919050565b6000604051905090565b600067ffffffffffffffff8211156114ca576114c961167d565b5b602082029050602081019050919050565b600067ffffffffffffffff8211156114f6576114f561167d565b5b6114ff826116ac565b9050602081019050919050565b6000819050602082019050919050565b600081519050919050565b600081519050919050565b6000602082019050919050565b600082825260208201905092915050565b600082825260208201905092915050565b600061156c8261157f565b9050919050565b60008115159050919050565b600073ffffffffffffffffffffffffffffffffffffffff82169050919050565b6000819050919050565b82818337600083830152505050565b60005b838110156115d65780820151818401526020810190506115bb565b838111156115e5576000848401525b50505050565b6000600282049050600182168061160357607f821691505b602082108114156116175761161661164e565b5b50919050565b611626826116ac565b810181811067ffffffffffffffff821117156116455761164461167d565b5b80604052505050565b7f4e487b7100000000000000000000000000000000000000000000000000000000600052602260045260246000fd5b7f4e487b7100000000000000000000000000000000000000000000000000000000600052604160045260246000fd5b6000601f19601f8301169050919050565b7f4f6e6c7920746865206f776e65722063616e20706572666f726d20746869732060008201527f616374696f6e0000000000000000000000000000000000000000000000000000602082015250565b7f496e76616c696420696e64657800000000000000000000000000000000000000600082015250565b7f56656e646f72206e6f7420726567697374657265640000000000000000000000600082015250565b61176781611561565b811461177257600080fd5b50565b61177e8161159f565b811461178957600080fd5b5056fea2646970667358221220362f5176f9cc9caac44418a0ac8f0d85d11869c4e7242bcad5ece1530743a22364736f6c63430008010033",
  "linkReferences": {},
  "deployedLinkReferences": {}
}